:020000040800F2
:10000000B88C0020A101000825270008A5020008DF
:100010002127000865040008C9330008000000001B
:10002000000000000000000000000000B301000814
:100030008504000800000000F301000829270008DB
:10004000BB010008BB010008BB010008BB010008A0
:10005000BB010008BB010008BB010008BB01000890
:10006000BB010008BB010008BB010008BB01000880
:10007000BB010008BB010008BB010008BB01000870
:10008000BB010008BB010008BB010008BB01000860
:10009000BB010008BB010008BB010008BB01000850
:1000A000BB010008BB010008BB010008BB01000840
:1000B000BD280008BB010008BB010008BB01000807
:1000C000BB010008BB010008BB010008BB01000820
:1000D000BB010008B1300008BB010008BB010008EB
:1000E000BB010008BB010008BB010008BB01000800
:1000F000BB010008BB010008BB010008BB010008F0
:10010000BB010008BB010008BB010008BB010008DF
:10011000BB010008BB010008BB010008BB010008CF
:10012000BB010008BB010008BB010008BB010008BF
:10013000BB010008BB010008BB010008BB010008AF
:10014000BB010008BB010008BB010008BB0100089F
:10015000BB010008BB010008BB010008BB0100088F
:10016000BB010008BB010008BB010008BB0100087F
:10017000BB010008BB010008BB0100080000000033
:10018000BB010008BB010008DFF810D000F028F91F
:10019000004800475B040008AFF30080B88C0020E3
:1001A0000648804706480047FEE7FEE7FEE7FEE711
:1001B000FEE7FEE7FEE7FEE7FEE7FEE7A928000808
:1001C00089010008EFF3108072B6704780F3108841
:1001D0007047424A1368012B04D04FF001031360AB
:1001E0003F4A10603F4A11603F484FF08051016024
:1001F0007047EFF3108272B63848016851B34FF080
:10020000000101603648016891B1EFF309811EF0E9
:10021000100F08BF21ED108B21E9F00F4FF0000403
:100220001EF0100F08BF012441F8044D0068016062
:100230002C490968096808C9B1E8F00F002B18BFFC
:10024000B1EC108B81F309884EF0100E002B18BF13
:100250002EF0100E82F310884EF0040E70472149E4
:100260000860EFF3148222F0040282F314881C4920
:100270004FF00000086019494FF0010008601B486A
:100280001B49D0F8002041EA0201016016484FF0F6
:100290008051016017480068006880F3088861B6E3
:1002A00062B670471EF0040F0CBFEFF30880EFF347
:1002B000098020E9F00F40F804ED40F804ED1EF04D
:1002C000040F0CBF80F3088880F3098800B503F0A1
:1002D00049FD5DF804EB4EF0040E70479C000020D1
:1002E000940000209800002004ED00E020ED00E0E4
:1002F0000000FFFF08ED00E02DE9F05F054600205B
:1003000092469B4688460646814640241BE0284686
:1003100041464746224600F053F853465A46C01A13
:10032000914110D311461846224600F03AF82D1A92
:1003300067EB01084F4622460120002100F031F80A
:1003400017EB00094E41201EA4F10104DFDC4846F2
:1003500031462A464346BDE8F09F40EA01039B0729
:1003600003D009E008C9121F08C0042AFAD203E02A
:1003700011F8013B00F8013B521EF9D27047D2B28E
:1003800001E000F8012B491EFBD270470022F6E77E
:1003900010B513460A4604461946FFF7F0FF2046FB
:1003A00010BD202A04DB203A00FA02F10020704739
:1003B0009140C2F1200320FA03F3194390407047A3
:1003C000202A04DB203A21FA02F00021704721FAAA
:1003D00002F3D040C2F12002914008431946704711
:1003E000064C074D06E0E06840F0010394E8070082
:1003F00098471034AC42F6D3FFF7CAFE3C500008D1
:100400005C50000870B58C1810F8015B15F00703FC
:1004100001D110F8013B2A1106D110F8012B03E09D
:1004200010F8016B01F8016B5B1EF9D12B0705D4A5
:100430000023521E0DD401F8013BFAE710F8013BEE
:10044000CB1A921C03E013F8015B01F8015B521E0A
:10045000F9D5A142D8D3002070BD10B504F05AFCE4
:10046000002010BD00BFFEE7024600BF2AB90448C5
:10047000018001E000BF00BFFCE700BF0120704722
:1004800004000020704772B600BFFEE770B5044656
:10049000A56D00F07DF9064694F83500022808D0D5
:1004A0008020606500BF002084F8340000BF012078
:1004B00070BD2068006820F0160021680860206880
:1004C000406920F0800021684861206C08B9A06C68
:1004D00028B12068006820F00800216808602068C2
:1004E000006820F001002168086010E000F050F979
:1004F000801B05280BD920206065032084F8350077
:1005000000BF002084F8340000BF0320D0E720683B
:10051000006800F001000028E8D194F85C103F204A
:100520008840A860012084F8350000BF002084F8CE
:10053000340000BF00BFBBE7014691F83500022838
:1005400003D08020486501207047052081F83500E0
:100550000868006820F001000A6810600020F3E7D6
:1005600010B50446A0B203F001F910BDF8B502467B
:100570000B460025002400200021D6E0012606FAC3
:1005800001F51E6806EA0504AC4274D11E7906F036
:100590000306012E04D01E7906F00306022E13D1A5
:1005A00090684F000326BE40B0434F00DE68BE4057
:1005B00030439060506801268E40B0431E79C6F3E8
:1005C00000168E40304350601E7906F00306032E5D
:1005D00009D0D0684F000326BE40B0434F009E684C
:1005E000BE403043D0601E7906F00306022E13D1C0
:1005F000CF0802F1200656F827004E07F70E0F2607
:10060000BE40B0434F07FF0E1E69BE403043CF08C7
:1006100002F1200646F8270010684F000326BE406E
:10062000B0431E7906F003064F00BE403043106011
:100630005E6806F44036002E76D000BF0026009695
:100640003C4E366846F480463A4F3E603E46366839
:1006500006F48046009600BF00BF374E8F0856F85C
:1006600027008E07370F0F26BE40B043334EB242ED
:1006700002D1002624E057E0314EB24201D10126DA
:100680001EE0304EB24201D1022619E02E4EB24297
:1006900001D1032614E02D4EB24201D104260FE011
:1006A0002B4EB24201D105260AE02A4EB24201D1B8
:1006B000062605E0284EB24201D1072600E00826B2
:1006C0008F073F0FBE4030431B4E8F0846F8270070
:1006D000224E3068A0435E6806F4801606B12043BF
:1006E0001E4E3060361D3068A0435E6806F400166A
:1006F00006B12043194E361D3060184E361F306843
:10070000A0435E6806F4003606B12043134E361F40
:100710003060361F3068A0435E6806F4803606B14C
:1007200020430E4E083E3060491C1029FFF426AFCE
:10073000F8BD000044380240083801400000024083
:100740000004024000080240000C02400010024079
:100750000014024000180240001C0240083C014006
:10076000024613690B400BB1012000E000207047E6
:1007700010B5426921EA020302EA010443EA044394
:10078000836110BD0AB1816101E00B048361704790
:1007900001480068704700002C00002030B58BB085
:1007A000044614B901200BB030BD256894F8F90255
:1007B00028B9002084F8F802204600F029F8032028
:1007C00084F8F902E86B00F4807008B90021216117
:1007D000206802F0E3FC282204F110016846FFF7CC
:1007E000BCFD94E80F0002F06BFC0121206802F0D0
:1007F000B7FD282204F110016846FFF7AEFD94E82A
:100800000F0002F02FFD012084F8F9020020CAE752
:1008100010B586B00446142101A8FFF7B7FD206883
:10082000B0F1A04F3AD100BF002000901C480068F2
:1008300040F001001A4908600846006800F0010015
:10084000009000BF00BF4FF4C05001900220029002
:1008500000200390032004900A20059001A911486C
:10086000FFF784FE00BF0E48001D006840F08000C6
:100870000B49091D086000BF002000900848143093
:10088000006840F48040064914310860084600685A
:1008900000F48040009000BF00BF00BF06B010BD54
:1008A000303802400000024070B504460CB9012007
:1008B00070BD94F83D0028B9002084F83C00204623
:1008C00000F0DAF8242084F83D002068006820F069
:1008D0000100216808602068006840F40040216839
:1008E00008602068006820F400402168086000F07B
:1008F000FBFA05465C496068884206D85B48854239
:1009000001D2012007E0002005E05948854201D2CC
:10091000012000E00020012800D1C9E75548B5FBBF
:10092000F0F62068406820F03F00304321684860BE
:100930004D496068884201D8701C07E04FF49670FA
:1009400070434FF47A71B0FBF1F0401C2168096AE2
:1009500021F03F01084321680862434960688842EA
:1009600014D8681E61684900B0FBF1F0401CC0F368
:100970000B00042801D204203DE0681E6168490094
:10098000B0FBF1F0401CC0F30B0034E0A06838B9B4
:10099000681E616801EB4101B0FBF1F0401C0AE008
:1009A000681E616801EBC10202EB0111B0FBF1F0BE
:1009B000401C40F48040C0F30B0008B901201AE04D
:1009C000A06848B9681E616801EB4101B0FBF1F015
:1009D000401CC0F30B000CE0681E616801EBC10213
:1009E00002EB0111B0FBF1F0401CC0F30B0040F42E
:1009F000804040F400402168C9694CF6FF72914381
:100A000008432168C861D4E90701084321680968DF
:100A100021F0C001084321680860D4E903100843AD
:100A20002168896848F2FF32914308432168886051
:100A3000D4E9050108432168C96821F0FF01084392
:100A40002168C8602068006840F0010021680860E3
:100A500000202064202084F83D000020206384F8DA
:100A60003E0000BF24E70000A086010080841E0035
:100A700000093D0040420F0010B586B00446142125
:100A800001A8FFF783FC1B49206888422FD100BFD3
:100A9000002000901848006840F0020016490860E5
:100AA0000846006800F00200009000BF00BFC020B0
:100AB0000190122002900020039003200490042053
:100AC000059001A90D48FFF751FD00BF00200090DF
:100AD00009481030006840F40010074910310860E0
:100AE0000846006800F40010009000BF00BF06B088
:100AF00010BD0000005400403038024000040240A5
:100B000003480068034909780844014908607047B0
:100B10002C0000203400002010B50D48006840F47F
:100B200000700B4908600846006840F48060086067
:100B30000846006840F480700860032000F0D6F892
:100B40000F2000F007F800F05FF8002010BD000053
:100B5000003C02402DE9F04188B004460027B84629
:100B600000BF002001902448006840F001002249A5
:100B700008600846006800F00100019000BF00BF57
:100B800002A903A800F088F9069F1FB900F0ACF98C
:100B9000054602E000F0A8F945001848B5FBF0F062
:100BA000A0F101084FF080401549086040F2E7319C
:100BB0001348C160C0F80480002101618160816137
:100BC00000F076FD064696B90D4800F0D7FD0646C2
:100BD0006EB91C2000F03CF8102C07D200222146F0
:100BE0001C2000F045F80748046000E0012630466C
:100BF00008B0BDE8F08100004038024040420F00DC
:100C0000440900203000002008B500BF00200090FB
:100C10000E48006840F480400C49086008460068AF
:100C200000F48040009000BF00BF00BF0020009093
:100C3000081F006840F08050091F086008460068DF
:100C400000F08050009000BF00BF08BD4438024053
:100C500001460846002809DB00F01F0301229A40E4
:100C600043099B0003F1E023C3F8002100BF704754
:100C70002DE9F05F80460D461646002702F0A6FBE0
:100C8000074639462A46334601F00700C0F1070AF5
:100C9000BAF1040F02D94FF0040A01E0C0F1070ACB
:100CA000D14600F1040ABAF1070F02D24FF0000A50
:100CB00001E0A0F1030AD4464FF0010A0AFA09FA4A
:100CC000AAF1010A0AEA020A0AFA0CFA4FF0010B29
:100CD0000BFA0CFBABF1010B0BEA030B4AEA0B041A
:100CE0002146404602F07AFBBDE8F09F00BF00F0CD
:100CF0000702064B19684FF6FF031940044B0B43DC
:100D000043EA0221014B196000BF70470CED00E07F
:100D10000000FA0570B504460D460CB9012070BDFF
:100D20005848006800F00700A84209D255490D70E4
:100D30000846006800F00700A84201D00120EEE755
:100D4000207800F0020002281DD1207800F0040075
:100D5000042805D14C48006840F4E0504A49086036
:100D6000207800F00800082805D14748006840F4C2
:100D70006040454908604448006820F0F000A168E0
:100D8000084341490860207800F00100A8B360687A
:100D9000012807D13C4808380068C0F34040B8B982
:100DA0000120BCE76068022802D06068032807D1F0
:100DB000354808380068C0F3406048B90120AEE704
:100DC000314808380068C0F3400008B90120A6E7A0
:100DD0002D48006820F00300616808432A49086034
:100DE000FFF7D6FC064609E0FFF7D2FC801B41F274
:100DF0008831884202D9032091E707E02248006841
:100E000000F00C006168B0EB810FEDD11D48006867
:100E100000F00700A84209D91A490D700846006879
:100E200000F00700A84201D0012078E7207800F008
:100E30000400042807D11448006820F4E050E16859
:100E4000084311490860207800F00800082808D1FC
:100E50000D48006820F46040216940EAC1000A4959
:100E6000086000F061F808490968C1F30311074AF6
:100E7000515CC8400649086006480068FFF76AFEF2
:100E800000204CE7003C024008380240A04E000819
:100E900000000020300000200F2202600D4A12687E
:100EA00002F0030242600B4A126802F0F002826014
:100EB000084A126802F4E052C260064A126802F45C
:100EC0006042D2080261044A126802F007020A6016
:100ED0007047000008380240003C024001480068AA
:100EE000704700000000002000B5FFF7F7FF04493D
:100EF0000968C1F38221034A515CC84000BD00006B
:100F000008380240B04E000800B5FFF7E7FF04497B
:100F10000968C1F34231034A515CC84000BD00007A
:100F200008380240B04E00082DE9F04700240025A3
:100F30000026A1462548006800F00C0020B10428D6
:100F400005D008283AD105E0DFF8849039E0DFF8D1
:100F5000849036E01D48001F006800F03F041B48E5
:100F6000001F006800F4800078B11A481749091F73
:100F70000968C1F38811A0FB0170014622460023D5
:100F80003846FFF7B9F905460EE011480F49091F29
:100F90000968C1F38811A0FB0170014622460023B5
:100FA0003846FFF7A9F905460848001F0068C0F356
:100FB0000140401C4600B5FBF6F902E0DFF8109056
:100FC00000BF00BF4846BDE8F08700000838024077
:100FD0000024F40000127A00F8B504460CB9012090
:100FE000F8BD207800F00100002874D0F9480068AE
:100FF00000F00C0004280DD0F648006800F00C004A
:10100000082813D1F348001F006800F48000B0F5F1
:10101000800F0BD1EF4808380068C0F3404000282B
:1010200059D06068002856D10120D9E700BF606818
:10103000B0F5803F08D1E7480838006840F48030B8
:10104000E449083908601EE06068B0F5A02F0DD1B2
:10105000E0480838006840F48020DE49083908601C
:101060000846006840F4803008600CE0D948083831
:10107000006820F48030D7490839086008460068C5
:1010800020F48020086000BF606890B1FFF780FB0B
:10109000054606E0FFF77CFB401B642801D90320CE
:1010A0009EE7CC4808380068C0F340400028F1D0E3
:1010B00011E0FFF76DFB054606E0FFF769FB401BFB
:1010C000642801D903208BE7C24808380068C0F3C0
:1010D00040400028F1D1207800F0020002285FD1C2
:1010E000BC48006800F00C0058B1BA48006800F035
:1010F0000C0008281CD1B748001F006800F48000CD
:10110000B0B9B44808380068C0F3400020B1E068C6
:10111000012801D0012063E7AE480838006820F0BC
:10112000F800216940EAC100AA490839086037E09F
:10113000E06800B30120A8490860FFF729FB0546D5
:1011400006E0FFF725FB401B022801D9032047E7F3
:10115000A04808380068C0F340000028F1D09D483E
:101160000838006820F0F800216940EAC100994978
:101170000839086014E0002097490860FFF708FB71
:10118000054606E0FFF704FB401B022801D90320B7
:1011900026E7904808380068C0F340000028F1D1E5
:1011A000207800F0080008282CD16069A8B101203F
:1011B0008A490860FFF7ECFA054606E0FFF7E8FA0F
:1011C000401B022801D903200AE782486C300068DE
:1011D000C0F340000028F1D014E000207F490860EF
:1011E000FFF7D6FA054606E0FFF7D2FA401B0228C1
:1011F00001D90320F4E677486C300068C0F3400062
:101200000028F1D1207800F00400042870D10027D4
:1012100070483830006800F0805090B900BF00205E
:1012200000906C483830006840F08050694938318F
:1012300008600846006800F08050009000BF00BFC2
:1012400001276748006800F48070B0B964480068FE
:1012500040F4807062490860FFF79AFA054606E09C
:10126000FFF796FA401B022801D90320B8E65C4834
:10127000006800F480700028F2D000BFA068012848
:1012800008D154486830006840F001005149683185
:1012900008601DE0A06805280DD14E486830006840
:1012A00040F004004B49683108600846006840F08F
:1012B000010008600CE047486830006820F0010039
:1012C0004449683108600846006820F0040008605E
:1012D00000BFA068A8B1FFF75BFA054609E0FFF779
:1012E00057FA401B41F28831884202D9032077E641
:1012F00026E0384868300068C0F340000028EED08F
:1013000013E0FFF745FA054608E0FFF741FA401BF6
:1013100041F28831884201D9032061E62D486830C6
:101320000068C0F340000028EFD1012F07D1294801
:101330003830006820F0805026493831086000BFFE
:10134000A069002845D02348006800F00C00082858
:101350005DD0A069022845D100201F490866FFF72B
:1013600017FA054606E0FFF713FA401B022801D9D9
:10137000032035E6174808380068C0F340600028AD
:10138000F1D1D4E907010843616A40EA81110122E1
:10139000A06AC2EB500041EA00412C20005D41EA06
:1013A00000600C49091F086001200B490866FFF71F
:1013B000EFF9054606E0FFF7EBF9401B022801D9DB
:1013C00003200DE6034808380068C0F34060002899
:1013D000F1D049E00838024000004742800E474201
:1013E00000700040002021490866FFF7D1F905464A
:1013F00006E0FFF7CDF9401B022801D90320EFE5F5
:101400001B480068C0F340600028F2D12CE0A069BE
:10141000012800D1E4E51648001D0668A0690128EE
:1014200020D006F48001E06981421BD106F03F0123
:10143000206A814216D147F6C0703040616AB0EB35
:10144000811F0FD106F440310122A06AC2EB500087
:10145000B1EB004F06D106F070612C20005DB1EBBE
:10146000006F01D00120BBE50020B9E50000474234
:101470000038024010B504460CB9012010BD606A66
:1014800038B96068B0F5827F00D105E00021E161E4
:1014900002E00021216161610021A16294F8510004
:1014A00028B9002084F85000204600F047F80220B8
:1014B00084F851002068006820F04000216808602E
:1014C000A08800F48270218901F404410843A189B5
:1014D00001F400610843217C01F002010843217DF1
:1014E00001F001010843218B01F400710843217FC1
:1014F00001F0380108432021095D01F08001084313
:10150000218D01F400510843216808600421A0697D
:1015100001EA104094F8241001F0100108432168FA
:1015200048602068C06920F400602168C86100201C
:101530006065012084F8510000209FE710B586B057
:101540000446142101A8FEF721FF1B4920688842A8
:101550002FD100BF002000901848006840F4805050
:10156000164908600846006800F48050009000BFEB
:1015700000BF00BF0020009010481438006840F001
:1015800001000E49143908600846006800F00100A7
:10159000009000BF00BFE0200190022002900020D8
:1015A0000390032004900520059001A90448FEF74C
:1015B000DDFF06B010BD000000300140443802409D
:1015C0000000024070B504462546681EB0F1807FD9
:1015D00001D301200FE0681E4FF0E02148610F2188
:1015E0004FF0FF3001F0FAFE00204FF0E02188615B
:1015F00007200861002070BD7047704730B5024673
:101600000B4600BF92F83C00012801D1022030BDFA
:10161000012082F83C0000BF022082F83D001068E3
:1016200044681068816824F07004186804431068E6
:101630004460184D1068A8421BD01068B0F1804F6C
:1016400017D0154D1068A84213D0144D1068A84249
:101650000FD0134D1068A8420BD0124D1068A8424D
:1016600007D0114D1068A84203D0104D1068A84251
:1016700005D121F080015868014310688160012084
:1016800082F83D0000BF002082F83C0000BF00BF90
:10169000BDE70000000001400004004000080040D9
:1016A000000C0040000401400040014000180040D0
:1016B00010B504460CB9012010BD94F83D0028B9BE
:1016C000002084F83C00204600F026F8022084F830
:1016D0003D00211D206801F0F9F8012084F8460042
:1016E00000BF84F83E0001213F20015540200155F4
:1016F0004120015500BF00BF012084F84200432073
:101700000155442001554520015500BF012084F8B2
:101710003D000020D0E7000008B5154A016891425D
:101720000FD100BF002100911249096841F0010169
:10173000104A11601146096801F00101009100BFD3
:1017400015E00D4A0168914211D100BF00210091BE
:101750000849091F096841F00401064A121F116077
:101760001146096801F00401009100BF00BF08BDE7
:10177000000001404438024000080040014691F852
:101780003D00012801D001207047022081F83D0072
:101790000868C06840F001000B68D8601A4B086800
:1017A00098421BD00868B0F1804F17D0174B0868DB
:1017B000984213D0164B086898420FD0154B086812
:1017C00098420BD0144B0868984207D0134B086816
:1017D000984203D0124B086898420CD10868806880
:1017E00000F00702062A0CD00868006840F00100EB
:1017F0000B68186005E00868006840F001000B689D
:1018000018600020C0E70000000001400004004014
:1018100000080040000C004000040140004001406E
:10182000001800402DE9F04104460D46002700BF96
:1018300094F83C00012802D10220BDE8F08101208B
:1018400084F83C0000BF022084F83D0020688668D0
:1018500026F0770626F47F462068866028685028A0
:1018600033D00CDC202850D004DC00284BD01028CA
:1018700051D149E0302849D040284CD139E0602886
:101880002DD0702807D0B0F5805F03D0B0F5005F91
:1018900041D10DE041E0D5E902136A68206801F00A
:1018A00092F82068866846F077062068866034E003
:1018B000D5E902136A68206801F085F8206880681D
:1018C00040F480402168886027E0EA686968206801
:1018D00001F06AF95021206801F080F81DE0EA6803
:1018E0006968206801F073F96021206801F076F8DA
:1018F00013E0EA686968206801F056F94021206821
:1019000001F06CF809E000BF00BF00BF2968206843
:1019100001F064F801E0012700BF00BF012084F856
:101920003D0000BF002084F83C0000BF384684E73B
:10193000704710B5044620680069C0F34000D8B174
:101940002068C068C0F34000B0B16FF002002168A9
:101950000861012020772068806900F0030018B139
:101960002046FFF7E5FF05E0204600F0DDF82046C1
:1019700000F091F90020207720680069C0F3800012
:10198000D8B12068C068C0F38000B0B16FF0040027
:1019900021680861022020772068806900F4407087
:1019A00018B12046FFF7C4FF05E0204600F0BCF860
:1019B000204600F070F90020207720680069C0F30D
:1019C000C000D8B12068C068C0F3C000B0B16FF0EB
:1019D000080021680861042020772068C06900F0B1
:1019E000030018B12046FFF7A3FF05E0204600F0F2
:1019F0009BF8204600F04FF900202077206800690E
:101A0000C0F30010D8B12068C068C0F30010B0B1B6
:101A10006FF0100021680861082020772068C069F5
:101A200000F4407018B12046FFF782FF05E0204621
:101A300000F07AF8204600F02EF900202077206888
:101A4000006900F0010058B12068C06800F0010092
:101A500030B16FF0010021680861204600F0F6F90E
:101A600020680069C0F3C01058B12068C068C0F396
:101A7000C01030B16FF08000216808612046FFF788
:101A8000BBFD20680069C0F3801058B12068C068B1
:101A9000C0F3801030B16FF040002168086120462B
:101AA00000F0DDF920680069C0F3401058B12068EB
:101AB000C068C0F3401030B16FF0200021680861A9
:101AC0002046FFF79AFD10BD10B586B004461421DC
:101AD00001A8FEF75BFC1149206888421CD100BFB9
:101AE000002000900E48006840F008000C49086093
:101AF0000846006800F00800009000BF00BF88148E
:101B00000190022002900020039004900220059092
:101B100001A90448FEF72AFD06B010BD00080040E8
:101B200030380240000C024070472DE9F041044675
:101B30000D461646002700BF94F83C00012802D14C
:101B40000220BDE8F081012084F83C0000BF36B1DE
:101B5000042E1BD0082E31D00C2E5ED145E0294634
:101B6000206800F045FF2068806940F00800216887
:101B700088612068806920F00400216888612068FD
:101B80008069296908432168886148E029462068FE
:101B900000F066FF2068806940F400602168886179
:101BA0002068806920F480602168886120688069ED
:101BB000296940EA01202168886130E029462068CF
:101BC00000F08CFF2068C06940F008002168C861FF
:101BD0002068C06920F004002168C8612068C069DD
:101BE000296908432168C86119E02946206800F086
:101BF000B1FF2068C06940F400602168C8612068B6
:101C0000C06920F480602168C8612068C0692969C2
:101C100040EA01202168C86101E0012700BF00BF40
:101C200000BF002084F83C0000BF384689E710B5AB
:101C300004460CB9012010BD94F83D0028B90020DD
:101C400084F83C00204600F025F8022084F83D008E
:101C5000211D206800F03AFE012084F8460000BFF4
:101C600084F83E0001213F200155402001554120CC
:101C7000015500BF00BF012084F8420043200155F8
:101C8000442001554520015500BF012084F83D0046
:101C90000020D0E77047704770B504460D4615B96F
:101CA00094F83E000BE0042D02D13F20005D06E0D9
:101CB000082D02D14020005D01E04120005D012897
:101CC00001D0012070BD1DB9022084F83E000EE055
:101CD000042D03D102213F20015508E0082D03D136
:101CE00002214020015502E002214120015501223C
:101CF0002946206800F056FE23492068884203D018
:101D000022492068884201D1012000E0002028B14A
:101D10002068406C40F40040216848641A492068FB
:101D200088421BD02068B0F1804F17D01849206836
:101D3000884213D01749206888420FD0164920687E
:101D400088420BD011492068884207D01349206887
:101D5000884203D01249206888420CD120688068EC
:101D600000F00706062E0CD02068006840F0010045
:101D70002168086005E02068006840F001002168E3
:101D8000086000209EE700000000014000040140C0
:101D90000004004000080040000C004000400140EA
:101DA0000018004030B504460D4600222946206840
:101DB00000F0F8FD23492068884203D022492068BA
:101DC000884201D1012000E0002090B100BF2068CE
:101DD000006A41F21111084050B92068006A891068
:101DE000084028B92068406C20F40040216848640D
:101DF00000BF00BF2068006A41F21111084050B9CD
:101E00002068006A8910084028B92068006820F01E
:101E100001002168086000BF1DB9012084F83E0060
:101E20000EE0042D03D101213F20015508E0082DCB
:101E300003D101214020015502E00121412001553B
:101E4000002030BD000001400004014010B50446F0
:101E50002068B0F1804F01D1FEF752FE10BD7047EF
:101E6000704770472DE9F84F0446206805682068E0
:101E7000C668206847694FF00009CA4605F00F0997
:101E8000B9F1000F0AD105F0200038B106F02000AA
:101E900020B1204600F0FFFEBDE8F88FB9F1000F39
:101EA0007CD007F0010018B906F49070002875D0B6
:101EB00005F0010030B106F4807018B1206C40F0DC
:101EC0000100206405F0040030B107F0010018B1F2
:101ED000206C40F00200206405F0020030B107F0F1
:101EE000010018B1206C40F00400206405F00800E7
:101EF00048B106F0200010B907F0010018B1206CBD
:101F000040F008002064206C002846D005F0200036
:101F100028B106F0200010B1204600F0BCFE206879
:101F20004069C0F3801A206C00F0080010B9BAF1C3
:101F3000000F2DD0204600F068FE2068406900F0B8
:101F40004000402820D100BF00BF2168143151E873
:101F5000001F21F040002168143141E80002002AEE
:101F6000F3D100BFA06B50B17548A16B0865A06BA1
:101F7000FEF7E2FA88B1A06B016D88470DE02046BC
:101F8000FFF76FFF09E009E02046FFF76AFF04E072
:101F90002046FFF766FF002020647DE7206B0128C4
:101FA00076D105F01000002872D006F0100000284D
:101FB000FAD000BF002000902068006800902068E0
:101FC0004068009000BF00BF2068406900F04000FA
:101FD00040285ED1A06B006840681FFA80F8B8F115
:101FE000000F54D0A08D404551DDA4F82E80A06B89
:101FF000C069B0F5807F43D000BF00BF21680C31BD
:1020000051E8001F21F4807021680C3141E8000282
:10201000002AF3D100BF00BF00BF2168143151E88E
:10202000001F21F001002168143141E80002002A5C
:10203000F3D100BF00BF00BF2168143151E8001F79
:1020400021F040002168143141E80002002AF3D158
:1020500000BF202084F83E000020206300BF00BFA6
:1020600021680C3151E8001F21F0100021680C316B
:1020700041E80002002AF3D100BFA06BFEF706FA88
:10208000A08DE28D801A81B22046FFF7E9FE03E7BA
:1020900040E0A08DE18D401A1FFA80F8E08DC0B3BA
:1020A000B8F1000F35D000BF00BF21680C3151E8F6
:1020B000001F21F4907021680C3141E80002002AD1
:1020C000F3D100BF00BF00BF2168143151E8001FE9
:1020D00021F001002168143141E80002002AF3D107
:1020E00000BF202084F83E000020206300BF00BF16
:1020F00021680C3151E8001F21F0100021680C31DB
:1021000041E80002002AF3D100BF41462046FFF714
:10211000A7FEC1E605F0800030B106F0800018B1DE
:10212000204600F04BFFB7E605F0400030B106F066
:10213000400018B1204600F09EFDADE600BFABE6C2
:10214000F72B000810B504460CB9012010BDA0699A
:1021500000B100E000BF94F83D0028B9002084F8E9
:102160003C00204600F028F8242084F83D00206838
:10217000C06820F400502168C860204600F008FEC6
:102180002068006920F49040216808612068406957
:1021900020F02A00216848612068C06840F400509F
:1021A0002168C86000202064202084F83D0084F865
:1021B0003E000020CAE7000010B586B00446142196
:1021C00001A8FEF7E3F81F492068884238D100BF14
:1021D000002000901C48006840F010001A49086078
:1021E0000846006800F01000009000BF00BF00BF6C
:1021F0000020009014481438006840F00100124993
:10220000143908600846006800F00100009000BF23
:1022100000BF4FF4C06001900220029000200390A4
:10222000032004900720059001A90848FEF79EF9B5
:10223000002211462520FEF71BFD2520FEF708FD94
:1022400006B010BD001001404438024000000240BA
:1022500070472DE9F84F04460E46174699464FF051
:10226000000A94F83D0020285AD106B117B9012080
:10227000BDE8F88F00BF94F83C00012801D102208E
:10228000F6E7012084F83C0000BF002020642120F4
:1022900084F83D00FEF77CFA8246A784E784A068B4
:1022A000B0F5805F04D1206910B90025B04602E086
:1022B00035464FF0000800BF002084F83C0000BF06
:1022C0001BE05346002280212046CDF8009000F00C
:1022D000A5FE08B10320CBE745B9B8F80000C0F36C
:1022E00008002168486008F1020803E028782168A6
:1022F00048606D1CE08C401EE084E08C0028E0D13A
:102300005346002240212046CDF8009000F086FE82
:1023100008B10320ACE7202084F83D000020A7E7A7
:102320000220A5E77047000000B587B0142102A87D
:10233000FEF72CF800BF002001907448006840F0C0
:102340001000724908600846006800F01000019013
:1023500000BF00BF00BF002001900846006840F0A9
:10236000040008600846006800F00400019000BF07
:1023700000BF00BF002001900846006840F08000C8
:1023800008600846006800F08000019000BF00BFB0
:1023900000BF002001900846006840F0010008607E
:1023A0000846006800F00100019000BF00BF00BFB8
:1023B000002001900846006840F0020008600846CE
:1023C000006800F00200019000BF00BF00BF0020C5
:1023D00001900846006840F0080008600846006860
:1023E00000F00800019000BF00BF00221121484802
:1023F000FEF7C8F9002204214648FEF7C3F900227F
:102400004FF468414448FEF7BDF94FF6FF50029083
:10241000032003900020049002A94048FEF7A6F88C
:102420004EF6FF700290032003900020049002A952
:102430003B48FEF79BF811200290012003900020FA
:102440000490059002A93248FEF790F848F20E1069
:102450000290032003900020049002A92C48FEF76C
:1024600085F84FF63B700290032003900020049003
:1024700002A92848FEF77AF8042002900120039070
:10248000022004900020059002A92248FEF76EF871
:102490004FF4007002904FF48810039000200490D5
:1024A00002A91E48FEF762F840F2FF3002900320B6
:1024B00003900020049002A91748FEF757F84FF444
:1024C0008060029000200390049002A91248FEF759
:1024D0004DF84FF4684002900120039000200490D2
:1024E000059002A90C48FEF741F84FF48050029085
:1024F0000220039000200490032005900C200690F9
:1025000002A90748FEF732F807B000BD3038024094
:102510000000024000040240000C02400010024093
:102520000008024010B50B480B4908600B48486092
:10253000002109488160C1604FF4804101610021A0
:1025400041618161C1610162FEF7AEF908B1FDF739
:102550009AFF10BD00540040C0040020A086010076
:1025600010B50E480E4908604FF482704860002193
:102570000B488160C160016141614FF4007181616C
:102580000021C1610162416281620A21C162FEF7DC
:1025900071FF08B1FDF777FF10BD0000003001406A
:1025A0001405002000B587B000200390049005902A
:1025B000069001900290154815490860A7204860D0
:1025C0000021134881604FF6FF71C1600021016155
:1025D00041618161FFF76CF808B1FDF754FF4FF4DA
:1025E0008050039003A90A48FFF71CF908B1FDF7D2
:1025F0004AFF00200190029001A90548FEF7FEFF66
:1026000008B1FDF740FF07B000BD00000000014029
:102610006C05002000B58DB0002009900A900B9049
:102620000C90079008901C216846FDF7AFFE2048EB
:10263000204908600720486000211E48816040F65C
:10264000FF71C1600021016180218161FFF730F8D5
:1026500008B1FDF718FF4FF48050099009A91548FB
:10266000FFF7E0F808B1FDF70EFF1248FFF7DFFAB9
:1026700008B1FDF708FF00200790089007A90D4852
:10268000FEF7BCFF08B1FDF7FEFE602000900020C1
:10269000019002900490002269460648FFF745FA2F
:1026A00008B1FDF7F0FE0348FFF70EFA0DB000BDCC
:1026B00000080040B405002010B50B480B49086025
:1026C0004FF4E1304860002108488160C160016139
:1026D0000C21416100218161C161FFF733FD08B127
:1026E000FDF7D1FE10BD000000100140FC050020E8
:1026F00010B54FF0A04009490860082107488160E3
:102700000121C16000210161022181610021C161BB
:10271000FEF744F808B1FDF7B6FE10BD40060020F4
:1027200000BFFEE700BFFEE710B501F055FC01F069
:10273000F5FF01F061FC10BD00B593B0302107A892
:10274000FDF724FE142102A8FDF720FE00BF0020A3
:1027500001902348006840F08050214908600846F5
:10276000006800F08050019000BF00BF00BF002053
:1027700001901C48006840F480401A4908600846EF
:10278000006800F48040019000BF00BF0120079066
:102790000004089002200D9041050E9104210F9134
:1027A00048211091022111910321129107A8FEF7EF
:1027B00013FC08B1FDF767FE0F2002900220039082
:1027C000002004904FF480500590002006900221D4
:1027D00002A8FEF79FFA08B1FDF755FE13B000BD41
:1027E000403802400070004070B5002000220223F3
:1027F00000240221274D2D6805F00C0020B104288B
:1028000006D0082834D107E0234D244E356033E04C
:10281000234D224E35602FE01E4D2D1F2D68C5F330
:1028200080541C4D2D1F2D6805F03F0154B11C4DE7
:10283000B5FBF1F5174E361F3668C6F3881605FB53
:1028400006F209E0144DB5FBF1F5124E361F36685D
:10285000C6F3881605FB06F20E4D2D1F2D68C5F335
:1028600001456D1C6B00B2FBF3F50C4E356003E0C7
:10287000094D0A4E356000BF00BF064D2D68C5F3F7
:102880000315084E705D054D2D68C540034E35603B
:1028900070BD0000083802400024F4000000002051
:1028A00000127A00A04E00080348006840F470004F
:1028B000014908607047000088ED00E010B502484B
:1028C000FFF737F810BD00004409002010B502687A
:1028D000294B98420ED0B0F1804F0BD0274B984235
:1028E00008D0274B984205D0264B984202D0264B61
:1028F000984203D122F070024B681A431E4B984253
:1029000020D0B0F1804F1DD01C4B98421AD01C4BE8
:10291000984217D01B4B984214D01B4B984211D0B1
:102920001A4B98420ED01A4B98420BD0194B984232
:1029300008D0194B984205D0184B984202D0184B3A
:10294000984203D122F44072CB681A4322F08003EC
:102950004C6943EA040202608B68C3620B688362BD
:10296000054B984202D0084B984201D10B69036392
:102970000123436110BD000000000140000400403D
:1029800000080040000C00400004014000400140ED
:10299000004401400048014000180040001C004075
:1029A0000020004030B501F01F05012404FA05F3B2
:1029B000046A9C430462046A01F01F0502FA05F5EB
:1029C0002C43046230BD30B50C46816821F47F4150
:1029D00042EA032525432943816030BD0A468168C8
:1029E00021F0700142F00703194381607047000035
:1029F00030B5056A25F001050562026A43688469FD
:102A000024F0700424F003040D682C4322F0020229
:102A10008D682A43104DA84200D103E00F4DA84213
:102A200006D100BF22F00802CD682A4322F004023A
:102A3000094DA84202D0094DA84207D123F4807362
:102A400023F400734D692B438D692B4343608461EC
:102A50004D684563026230BD000001400004014042
:102A600030B5056A25F010050562026A436884697D
:102A700024F4E04424F440740D6844EA052422F070
:102A800020028D6842EA0512124DA84200D103E0EF
:102A9000114DA84207D100BF22F08002CD6842EA62
:102AA000051222F040020B4DA84202D00A4DA84266
:102AB00009D123F4806323F400634D6943EA85035D
:102AC0008D6943EA8503436084614D6885630262D2
:102AD00030BD0000000001400004014030B5056A2F
:102AE00025F480750562026A4368C46924F07004A5
:102AF00024F003040D682C4322F400728D6842EA2E
:102B00000522124DA84200D103E0114DA84207D181
:102B100000BF22F40062CD6842EA052222F48062FE
:102B20000A4DA84202D00A4DA84209D123F480538D
:102B300023F400534D6943EA05138D6943EA0513F5
:102B40004360C4614D68C563026230BD000001404E
:102B50000004014030B5056A25F480550562036A1A
:102B60004468C26922F4E04222F440720D6842EAED
:102B7000052223F400538D6843EA0533084DA8422B
:102B800002D0084DA84204D124F480444D6944EA9F
:102B900085144460C2614D680564036230BD000065
:102BA000000001400004014030B50B461446026AA3
:102BB000056A25F001050562816921F0F00141EA0D
:102BC000041122F00A021A438161026230BD30B55D
:102BD0000B461446056A25F0100505628169026AF4
:102BE00021F4704141EA043122F0A00242EA0312CA
:102BF0008161026230BD70B50546AC6B0020E08596
:102C0000E0842046FFF72DF970BD00BF00BF0268C9
:102C10000C3252E8002F22F4907102680C3242E824
:102C20000013002BF3D100BF00BF00BF02681432B5
:102C300052E8002F22F001010268143242E800132A
:102C4000002BF3D100BF016B01290ED100BF00BFE3
:102C500002680C3252E8002F22F0100102680C3298
:102C600042E80013002BF3D100BF202180F83E1072
:102C700000210163704710B504462068C06820F049
:102C800040002168C860202084F83D002046FFF7FE
:102C900049FB002010BDF8B5044694F83E002228F8
:102CA00073D1A068B0F5805F0CD1206950B90025C0
:102CB000A66A20684068C0F308003080A06A801CC3
:102CC000A06215E0A56A0026A068B0F5805F03D079
:102CD000A06828B9206918B920684068287004E005
:102CE0002068406800F07F002870A06A401CA06245
:102CF000E08D401E80B2E085002844D12068C06885
:102D000020F020002168C8602068C06820F480702E
:102D10002168C8602068406920F00100216848618E
:102D2000202084F83E00206B012826D1002020635B
:102D300000BF00BF21680C3151E8001F21F01000D6
:102D400021680C3141E80002002AF3D100BF20685D
:102D5000006800F0100010280AD100BF0020009089
:102D600020680068009020684068009000BF00BFA5
:102D7000A18D2046FFF774F802E02046FFF768FABD
:102D80000020F8BD01E00020FBE70220F9E7000089
:102D90002DE9F84F04462068006920F44050E168AE
:102DA0000843216808612169A068084361690843F4
:102DB000E169084300902068C06849F20C618843CB
:102DC000009908432168C8602068406920F4407079
:102DD000A16908432168486176492068884203D088
:102DE00075492068884203D1FEF78EF8814602E0DB
:102DF000FEF77AF88146E069B0F5004F6CD1022009
:102E00006168A0FB015003461920A9FB0070014630
:102E10002A463846FDF770FA6421B0FBF1F04FEA1C
:102E2000001A02206168A0FB01510B461920A9FB82
:102E300000712A463846FDF75FFA83460220616832
:102E4000A0FB015003461920A9FB00712A46384611
:102E5000FDF752FA6421B0FBF1F000EBC00101EB89
:102E60000010ABEB8000322101EBC0006421B0FB0D
:102E7000F1F000F0F8000AEB400A02206168A0FBC4
:102E8000015003461920A9FB007001462A46384626
:102E9000FDF732FA834602206168A0FB0150034629
:102EA0001920A9FB00712A463846FDF725FA64214E
:102EB000B0FBF1F000EBC00101EB0010ABEB8000C8
:102EC000322101EBC0006421B0FBF1F000F00700FB
:102ED0005044216888606AE004206168A0FB0150CA
:102EE00003461920A9FB007001462A463846FDF723
:102EF00003FA824604206168A0FB015003461920B2
:102F0000A9FB007001462A463846FDF7F5F9642111
:102F1000B0FBF1F000EBC00101EB0010AAEB800068
:102F2000322101EB00106421B0FBF1F000F0F00A57
:102F300004206168A0FB017003461920A9FB005121
:102F40003A462846FDF7D8F96421B0FBF1F00AEBC8
:102F5000001A04206168A0FB01510B461920A9FB4F
:102F600000712A463846FDF7C7F983460420616898
:102F7000A0FB015003461920A9FB007001462A4618
:102F80003846FDF7B9F96421B0FBF1F000EBC00160
:102F900001EB0010ABEB8000322101EB001064214B
:102FA000B0FBF1F000F00F00504421688860BDE8EC
:102FB000F88F00000010014000140140014691F814
:102FC0003D00212828D18868B0F5805F0BD10869C1
:102FD00048B90A6A1088C0F308000B685860086A8C
:102FE000801C086205E00B6A581C086218780B68A0
:102FF0005860C88C401E80B2C88458B90868C06840
:1030000020F080000B68D8600868C06840F040007D
:103010000B68D860002070470220FCE72DE9F041E2
:1030200004460D4617469846069E34E0701C88B349
:103030002EB1FDF7ADFBA0EB0800B0422BD900BFCD
:1030400000BF21680C3151E8001F21F4D0702168C5
:103050000C3141E80002002AF3D100BF00BF00BFDD
:103060002168143151E8001F21F00100216814315A
:1030700041E80002002AF3D100BF202084F83D007F
:1030800084F83E0000BF002084F83C0000BF03200D
:10309000BDE8F081FFE7206800682840A84201D120
:1030A000012000E00020B842C0D00020F0E700007E
:1030B00010B50248FEF7D6FE10BD0000FC0500204A
:1030C0000FB470B504460A98012817D1A06B20F4FC
:1030D0008030A063E0681A490840E060E06820F4AE
:1030E0004010E0601198012803D1E06840F480109E
:1030F000E060204600F026F8054612E0E06840F067
:103100004000E060204600F01DF805460E9820B90A
:10311000A06B40F48030A06303E0A06B20F480300B
:10312000A0630898012807D1A06840F00600A060BD
:10313000A06840F02000A060284670BC5DF814FB39
:10314000BFFFBDFF08B501460020009000BF0098FA
:10315000401C0090104A0098904201D9032008BDFD
:10316000086900F000400028F1D0002000900869B4
:1031700040F00100086100BF0098401C0090064A22
:103180000098904201D90320E9E7086900F00100A6
:103190000028F1D100BFE2E7400D03000146886836
:1031A00020F00100886000207047000008B501464B
:1031B0000020009000BF0098401C00900F4A00982B
:1031C000904201D9032008BD086900F000400028A2
:1031D000F1D0002000901020086100BF0098401C32
:1031E0000090064A0098904201D90320EBE7086955
:1031F00000F010001028F1D00020E4E7400D03009B
:1032000008B502460020009000BF0098401C0090C6
:10321000104B0098984201D9032008BD106900F0B6
:1032200000400028F1D000200090202040EA8110CA
:10323000106100BF0098401C0090064B0098984217
:1032400001D90320E9E7106900F020002028F1D01F
:103250000020E2E7400D03000146486900F001004C
:10326000704700000FB4F0B5044600272546002043
:10327000C5F8000EA06B40F40010A063A06B20F412
:103280000020A063A06B20F48020A063E06B00F41A
:10329000807080B10898012806D1D5F8000440F06C
:1032A0000400C5F800040CE0D5F8000420F0040088
:1032B000C5F8000405E0D5F8000420F00400C5F8C6
:1032C000000410212046FFF79BFF00B10127204694
:1032D000FFF76CFF00B1012700260DE04FF0FF3132
:1032E00005F5A06000EB46108160002105F5A060A7
:1032F00000EB4610C160761C0798B042EED8002063
:10330000A061401E6061E06B00F4807040B14FF43A
:10331000007060620D48A0620D48C4F8000106E02C
:10332000802060620B48A0620B48C4F80001099835
:1033300018B9A06940F01000A061A06907490843CE
:10334000A0613846F0BC5DF814FB000000020001EB
:103350000003E00080006000E0004000080020A3BF
:1033600070B504460E460025E06820F0C040E060DD
:10337000012E10D1E06840F00050E06000BF012055
:10338000FDF7EEF86D1C2046FFF766FF012815D00B
:10339000322DF4D312E07EB9E06840F08040E06066
:1033A00000BF0120FDF7DCF86D1C2046FFF754FF3D
:1033B00020B1322DF5D301E0012070BD322D01D1B5
:1033C0000120FAE70020F8E700BFFEE702480068A6
:1033D000C0F30220704700000CED00E010B500289B
:1033E00004DB0A07130E054A135406E00A07140EFD
:1033F000034A00F00F031B1FD45410BD00E400E08B
:1034000018ED00E0014609B900207047C8B220B1AC
:10341000C8B20E4A105C401CF7E701F47F4028B1A7
:103420000A48C1F30722805C0930EEE701F47F000F
:1034300028B10648C1F30742805C1130E5E7034834
:1034400000EB116000781930DFE70000044F00083E
:1034500002E008C8121F08C1002AFAD1704770475D
:10346000002001E001C1121F002AFBD170470FB4F8
:1034700010B5BDF80C100298FDF772F910BC5DF89C
:1034800014FB0FB410B5BDF80C1000220298FDF724
:1034900079F910BC5DF814FB2DE9FC5F04468B46FE
:1034A00015461E46DDE90C9ADDE90E7804F114009C
:1034B0004060006000BF1C346560A660C4F80C90DA
:1034C000C4F810A02321D4E9030200F0EBFDD4E9F5
:1034D000033C63441A1F0F4BD4E9010100F054FD73
:1034E0002060A77667760020E061C4F82080C4F8E9
:1034F0002480606120766065A0651C3C00902346B6
:10350000054A2146019004F1440001F0B6F900207B
:10351000BDE8FC9F71440008554600082DE9F047BE
:1035200004460E4617469846DDF8209084F8099028
:10353000607A20F001006072E66127620020A062DC
:10354000C4F82480002506E004F1140101EBC50055
:1035500000F07DFD6D1C012DF6DBBDE8F08770B538
:103560000546002406E005F1140101EBC40000F05B
:1035700090FD641C012CF6DB70BD0FB410B5BDF8D6
:103580000C1001220298FDF7FDF810BC5DF814FB49
:1035900070B50446FCF716FE0546206F10B12046B4
:1035A000216F88472846FCF711FE70BD0FB410B597
:1035B000BDF80C100298FDF7DBF810BC5DF814FBA9
:1035C00000B589B01F4B0FCBCDE90723CDE905012D
:1035D0004FF400411C4800F0F7F805904FF40061EB
:1035E000194800F0F1F8069008980090002005A90D
:1035F0000EC901F0B7FB0A201F214FF48062134B64
:10360000CDE90032CDE902100023114A11A114487E
:1036100000F07EFF124800F0E5FF0A201E214FF463
:103620008062104BCDE90032CDE9021000230E4A32
:103630000EA1124800F06CFF104800F0D3FF09B053
:1036400000BD0000F44E0008000C02408C78002001
:10365000193800086C6564207461736B0000000009
:103660008C7C0020047D00204D4E00087374657032
:10367000206D6F746F72207461736B000481002081
:1036800070B52DED028B04460D46207A00EE100A2F
:10369000B8EE400AB0EE408A2946204600F03EF8D7
:1036A000E088A8420FD9E088401B00EB8000400072
:1036B000E188B0FBF1F000EE100AB8EE400A30EEFF
:1036C000080AB0EE408A94ED060ADFED120A80EE99
:1036D000801A84ED071A9FED100A28EE000AD4ED37
:1036E000070A80EE201A84ED081AD4ED080A00EECD
:1036F000105AB8EE400A20EE800ADFED070A80EE8D
:10370000201ABCEEC10A10EE100A86B23046BDEC9B
:10371000028B70BD00007A440000C8420F4A126854
:103720004FF47A73B2FBF3F2C26002681268926AD5
:10373000026190ED030AB8EE401A0269521C00EED5
:10374000102AB8EE400AC1EE000A00EE101AB8EED8
:10375000400A80EE801A80ED061A704700000020B3
:1037600001490860704700002400002010B504469D
:103770004FF47A7104FB01F000F002F810BD000074
:1037800070B5034600224FF0E02675690D4E36688D
:1037900003FB06F44FF0E026B16910E04FF0E0269D
:1037A000B06988420BD0884202D20E1A324402E03D
:1037B0002E1A0E4432440146A24200D300E0EDE747
:1037C00000BF70BD240000202DE9F04105460E46E3
:1037D00018273946002000F0F1F804460CB1012109
:1037E00000E0002108463621FCF73EFE2560A68059
:1037F0000548A0600548E060054820610548606113
:103800002046BDE8F08100007B35000883340008C5
:10381000AD3500086F34000807E004210348FCF7C9
:10382000A7FF4FF47A7000F08DFEF6E70004024027
:10383000FDF772F9FEF780FFFEF776FDFEF772FEE8
:10384000FEF7B0FEFEF738FFFEF78AFEFEF750FFE8
:10385000FEF7E0FE084800680849B0FBF1F084B2CA
:103860002046FFF77DFFFFF7ABFE03E04FF47A70D1
:1038700000F068FEFAE700000000002040420F0060
:1038800010B5044600F0F2F9FFF7D2FF10BD0000BA
:1038900010B504460C4951F824104A000B4951F860
:1038A0002400002100F09EF8094951F8242007491E
:1038B000083951F82400002100F094F80121034850
:1038C0000830015510BD0000B84E00081800002057
:1038D000C84E00082DE9F04704460F460025A946CA
:1038E0002348005D20B922481838016820468847DF
:1038F0001FB94FF0FF30BDE8F0871E4850F8240094
:10390000B7FBF0F61B4850F82400B7FBF0F100FBC2
:10391000117000B1761C184850F82400451E22E0B2
:103920001348083850F8240030F8150010B909F190
:10393000010901E04FF00009B14513D14FF0000833
:1039400009E00B48083850F8240005EB080220F87D
:10395000126008F10108B045F3D3064850F824007E
:103960006843C8E76D1E002DDADA4FF0FF30C2E77A
:1039700020000020C04E0008B84E000810B50146D7
:103980000023002207E00B4850F8210030F8120015
:1039900000B15B1C521C084850F821009042F2D83C
:1039A00064205843044C54F82140B0FBF4F0C0B2FA
:1039B00010BD000018000020B84E000870B5044685
:1039C0000E4631462046FFF785FF0546681C08B9BC
:1039D000002070BD024850F824002844F9E7000098
:1039E0001000002030B5034601E003F8011B141E4F
:1039F000A2F10102F9D130BD2DE9F04F86B00D469C
:103A00009C46DDE9106401960F9B04F04008B8F174
:103A1000000F02D0DFF8708101E0DFF87081CDF88F
:103A2000008004F01008B8F1000F01D024F0010468
:103A300004F00108B8F1000F02D04FF0300801E0A7
:103A40004FF02008C246002704F00208B8F1000F2A
:103A500011D0002A02DA2D2752420CE004F00408AB
:103A6000B8F1000F01D02B2705E004F00808B8F1E9
:103A7000000F00D02027002142B94FF0300B8846BC
:103A8000491C0DF1080909F808B01DE01AE0E146EB
:103A9000B9F10A0F08D14FF00A0BB2FBFBFE0BFB8A
:103AA0001E28B2FBFBF202E002F00F08120900BF71
:103AB000DDF8009019F808B08846491C0DF1080996
:103AC00009F808B0002AE2D1B14200DD0E469B1B86
:103AD00004F01108B8F1000F10D117B1002B00DD70
:103AE0005B1E06E0A84203D24FF0200880F8008059
:103AF000401CB3F10008A3F10103F3DC27B1A84295
:103B000000D207705B1E401C04F01008B8F1000FD3
:103B10000AD104E0A84201D280F800A0401CB3F111
:103B20000008A3F10103F5DC06E0A84203D24FF040
:103B3000300880F80080401CB046761E8845F4DCD2
:103B400008E0A84205D20DF1080818F8018080F8B5
:103B50000080401CB1F10008A1F1010104DDDDF895
:103B60000480B8F1000FECD106E0A84203D24FF078
:103B7000200880F80080401CB3F10008A3F1010385
:103B8000F3DC06B0BDE8F08F1550000804500008C3
:103B90002DE9F04104460E4620680068C06A87B2ED
:103BA000B74201D1BDE8F08100BF21792068FEF75E
:103BB000F9F800BF00BF20680068C6622068C660D0
:103BC00000BF31462046FFF75BFD054600BF207968
:103BD00018B920680068456310E02079042803D1F3
:103BE00020680068856309E02079082803D12068EF
:103BF0000068C56302E020680068056400BF00BF7C
:103C000021792068FEF748F800BF00BFCAE700002E
:103C10007FB50A4C14200A214FF48062084BCDE98D
:103C20000032CDE902100023064A07A1204600F029
:103C30006FFC0546204600F0D5FC7FBD8085002046
:103C400080810020813800086D61696E00000000ED
:103C500010B5044C02E020688047241D02488442CD
:103C6000F9D310BD2C5000083450000810B5044C96
:103C700002E020688047241D02488442F9D310BD29
:103C8000345000083850000810B5FCF79BFA044681
:103C900004480088401C00B2024908802046FCF716
:103CA00095FA10BD7400002010B5FCF78BFA04469D
:103CB0000C480088401E00B20A4908800846B0F946
:103CC000000000280ADC002008802046FCF77EFA6D
:103CD0000548006828B100F06DFA02E02046FCF7C4
:103CE00075FA10BD740000207800002010B5FCF7B4
:103CF00013FFFEF721FDFEF777FDFDF7EFF84FF418
:103D00007A71B0FBF1F42046FDF75CFCFFF7A0FFF1
:103D100010BD0000F8B50546002400260D200090D7
:103D200000BF00200E4981F83C0000BF284600F08B
:103D30002DFB064600BF0FE0285D0A2805D10123B0
:103D40001A4669460648FEF784FA291901231A46DD
:103D50000348FEF77EFA641CB442EDD3F8BD0000C0
:103D6000708800202DE9F041054605F128062C1D3C
:103D70003148006840B130462F49096888470746F6
:103D80000FB9BDE8F08100BF2CA0216C00F044F910
:103D90002EA0616A00F040F930A0A16A00F03CF961
:103DA00032A0E16A00F038F934A0216B00F034F958
:103DB00036A0616800F030F938A0A16800F02CF955
:103DC0003AA0E16800F028F93CA0216900F024F94C
:103DD0003EA0616900F020F940A0A16900F01CF943
:103DE00042A0E16900F018F944A0216A00F014F93A
:103DF00046A0616B00F010F948A0A16B00F00CF92F
:103E00004AA0E16B00F008F9287800F0040038B10E
:103E100000F0C0FB0746394648A000F0FDF802E07C
:103E20004EA000F0F9F8287800F0100010B952A068
:103E300000F0F2F800BFFEE7A00000207073723AB5
:103E4000203078253038780A000000007230303A8F
:103E5000203078253038780A000000007230313A7E
:103E6000203078253038780A000000007230323A6D
:103E7000203078253038780A000000007230333A5C
:103E8000203078253038780A000000007230343A4B
:103E9000203078253038780A000000007230353A3A
:103EA000203078253038780A000000007230363A29
:103EB000203078253038780A000000007230373A18
:103EC000203078253038780A000000007230383A07
:103ED000203078253038780A000000007230393AF6
:103EE000203078253038780A000000007231303AEE
:103EF000203078253038780A000000007231313ADD
:103F0000203078253038780A000000007231323ACB
:103F1000203078253038780A00000000206C723A92
:103F2000203078253038780A000000002070633A8D
:103F3000203078253038780A00000000686172640B
:103F4000206661756C74206F6E20746872656164A0
:103F50003A2025730D0A0D0A0000000068617264A2
:103F6000206661756C74206F6E2068616E646C658C
:103F7000720D0A0D0A0000004650552061637469F5
:103F80007665210D0A000000F0B504460D46164680
:103F9000301D20F0070044380146002203E00D4F99
:103FA00041F82270521C112AF9D34D624FF0000CD7
:103FB000C1F828C0C1F82CC0C1F830C0C1F834C065
:103FC0008B63CC634FF0807CC1F840C000270F604A
:103FD000F0BD0000EFBEADDE10B5FCF7F3F804460F
:103FE00004480078401C034908702046FCF7EEF8AE
:103FF00010BD00003C00002010B5FCF7E3F80446BB
:1040000004480078401E034908702046FCF7DEF89B
:1040100010BD00003C0000200FB438B505A800908A
:104020007F210848009B049A00F0CCFC04467F2CBA
:1040300000D97F240348FFF76DFE0020009038BCB4
:104040005DF814FBF086002040600060704740601F
:10405000006070470268516002680A600160486051
:1040600070470268516002680A60016048607047EA
:1040700001460868884201D1012070470020FCE712
:10408000D0E900215160D0E9001211604060006069
:104090007047D0E900215160D0E900121160406002
:1040A00000607047F0B50C460546E6B2042A15D309
:1040B00000F0030797B9014646EA062343EA0343A3
:1040C00004E008C108C108C108C1103A102AF8D29A
:1040D00001E008C1121F042AFBD20D4601E005F8D9
:1040E000016B171EA2F10102F9D1F0BD70B50446B3
:1040F00000202072FCF766F8054604F10C00D0E9B8
:1041000000215160D0E9001211604060006000BFE2
:104110002846FCF75BF870BD024600210AE007481C
:1041200000EB01100078904203D1044800EB01102D
:104130007047491C0329F2DB0020F9E7400000200A
:104140002DE9F04704460D46904600262846FFF725
:10415000E3FF0746FFF798FD7E6802E0A6F10C003A
:104160003668381D8642F9D1FFF79EFD45F0800084
:10417000207208224146204600F011F9FCF722F88F
:104180008146381D04F10C010268516002680A6022
:104190000160486000BF4846FCF718F8BDE8F087AA
:1041A0000146087A00F0800008B101207047002025
:1041B000FCE700002DE9F041FCF704F80746184839
:1041C000008838BB17480068FFF71CF9461E1648E0
:1041D00050F83600A0F1140414480068844218D046
:1041E00013490E701148056804601248007850B9F0
:1041F00004F11C0105F11C00FBF7EBFF3846FBF74F
:10420000E5FFBDE8F08104F11C0105F11C00FBF79E
:10421000E0FF00BF3846FBF7D9FF00BFF1E7000021
:1042200074000020700000207087002078000020BB
:104230007C0000203C00002070B50446FBF7C2FF64
:10424000054614F8340F20F00F0040F001002070F4
:104250006278343C0A4B03EBC20004F1140142685B
:10426000116042684A604160086000BF0549A06B68
:1042700009680843034908602846FBF7A7FF70BD9B
:10428000708700207000002070B50446FBF79AFF8D
:10429000054604F11400D0E900215160D0E9001274
:1042A00011604060006000BF94F83510094A02EBCD
:1042B000C1000168814201D1012100E0002129B142
:1042C0000548A16B00688843034908602846FBF74E
:1042D0007DFF70BD708700207000002008B509A028
:1042E000FFF79AFE0AA0FFF797FE12A0052301220E
:1042F0000321009012A0FFF78FFE19A0FFF78CFE9C
:1043000008BD00000A205C207C202F0A000000006D
:104310002D205254202D20202020205468726561C9
:1043200064204F7065726174696E6720537973748D
:10433000656D0A0041707220333020323032340013
:10434000202F207C205C202020202025642E256426
:104350002E2564206275696C642025730A000000B4
:104360002032303036202D203230323020436F70F2
:104370007972696768742062792072742D7468722A
:10438000656164207465616D0A00000001460A469B
:1043900000E0521C10780028FBD1501A704770B50D
:1043A0000346A2B118460C4600BF14F8016B00F892
:1043B000016B3EB902E0002500F8015B551E2A1E84
:1043C000F9D102E0551E2A1EEFD100BF00BF1846EA
:1043D00070BD000010B500200B490880002405E0E6
:1043E0000A4901EBC400FFF72FFE641C202CF7DB09
:1043F0001F20074908700020064908600649086028
:104400000648FFF721FE10BD7400002070870020D1
:104410007C00002078000020700000208000002038
:1044200070B508480068FEF7EDFF451E064850F8D5
:104430003500A0F114040548046004F11C00FBF7EA
:104440000EFF70BD700000207087002078000020F3
:1044500010B5002405E0044901EBC400FFF7F7FDA7
:10446000641C002CF7D010BD8800002070470000AD
:1044700070B513480468FBF7A5FE05462046FFF714
:1044800087F82046FFF700FF042084F8340004F189
:10449000440000F0DEF92046FFF782FE012803D138
:1044A0002046FFF723FE04E004F114010548FFF75E
:1044B000D1FDFFF77FFE2846FBF788FE70BD0000A8
:1044C000780000208000002001E000F001F8FCE707
:1044D000704700001FB520201F218022074BCDE927
:1044E0000032CDE902100023054A06A1074800F07A
:1044F0000FF8064800F076F81FBD00007086002017
:10450000C94400087469646C65000000F8850020E7
:104510002DE9FF5F05460C4616461F46DDE910AB48
:10452000DDE90E89224601212846FFF709FE3B46B8
:104530003246214628468DE8000FFEF7ADFF04B055
:10454000BDE8F09F70B50446204600F0C5F805466A
:10455000284600F025F870BD70B5044694F8340084
:1045600000F00F00022802D04FF0FF3070BDFBF7C3
:1045700029FE054604F11400FFF782FD04F1440012
:1045800000F008FA2846FBF721FE2046FFF754FE0C
:104590000020EBE701480068704700007800002029
:1045A00031B5FBF70FFE05460D480468204600F0C4
:1045B0002FF86A46002104F1440000F019F904F1D3
:1045C000440000F071F92846FBF700FEFFF7F2FD0A
:1045D000206B801C08B900202063002038BD00003B
:1045E0007800002010B504463434A07860706178FB
:1045F000012088406060022004F834092046FFF75B
:10460000ABFFFFF7C7FF08B1FFF7D4FD002010BDD7
:1046100070B5044694F8340000F00F00012802D071
:104620004FF0FF3070BDFBF7CDFD05462046FFF78C
:104630002BFE94F8340020F00F0040F0020084F8C4
:10464000340004F1440000F0A5F92846FBF7BEFD54
:104650000020E7E770B5044625466FF001002863A7
:1046600005F11400FFF70CFD2846FFF7E5FDFFF705
:10467000A1FD70BD70B5FBF7A5FD054614480468A3
:1046800094F8340000F00F0001281CD1D4E9051083
:10469000814218D004F11400FFF7F2FC94F83520A1
:1046A0000C4B03EBC20004F1140142681160426834
:1046B0004A604160086000BF2846FBF787FDFFF7AE
:1046C00079FD002070BD2846FBF780FD0020F9E74A
:1046D00078000020708700200146002902DA4FF0A0
:1046E000FF3014E04FF47A7291FBF2F24FF47A73D8
:1046F00002FB03F01A4691FBF2F302FB13124FF494
:104700007A735A4302F2E73292FBF3F21044704795
:1047100001480068704700003800002010B50A48C2
:104720000068401C08490860FFF734FF0446206C0D
:10473000401E2064206C18B9E06B2064FFF79AFFDC
:1047400000F004F810BD0000380000207CB5684679
:10475000FFF77DFCFFF7DCFF0546FBF733FD064660
:104760003AE022480068A0F11404A06A281A6FF009
:10477000004188422ED22046FEF7F1FE607A00F01A
:10478000020018B9607A20F00100607204F114018F
:104790006846FFF766FCD4E907108847FFF7B8FFC3
:1047A00005466846FFF764FC00B115E004F114000B
:1047B000FFF76FFC607A00F0020060B1607A00F0F1
:1047C000010040B1607A20F001006072204600F0E4
:1047D0006BF800E005E000BF0448FFF749FC002843
:1047E000BFD000BF3046FBF7F1FC7CBD8800002045
:1047F0002DE9F04104460E461546FBF7E3FC07465B
:10480000052E1ED2DFE806F00603090E1300606ACB
:10481000286017E02868606214E0607A20F00200E7
:1048200060720FE0607A40F0020060720AE0607A25
:1048300000F0010010B10120286001E00020286094
:1048400000E000BF00BF3846FBF7C0FC0020BDE819
:10485000F08170B50446FBF7B5FC05462046FEF72F
:104860007EFE607A20F0010060722846FBF7AEFC05
:104870002046FFF73BFC002070BD2DE9F8430746BA
:104880000C4615461E46DDE9088922460A213846AF
:10489000FFF756FC4346324629463846CDF800908D
:1048A000FEF73CFEBDE8F8832DE9F8430546FBF72B
:1048B00089FC80462846FEF752FE687A20F0010007
:1048C0006872FFF725FF696A0844A8622F4F0097B6
:1048D00000242AE019E05DF824201168142202EB7C
:1048E000C402881A826AAB6AD21A00D108E0826ACE
:1048F000AB6AD21A6FF000439A4200D20CE000BFBC
:104900005DF8240000684DF824005DF8240007EBF2
:10491000C40149688842DED100BF2CB15DF8240093
:104920000830611C4DF82100641C002CD2D01848BE
:104930000068401C164908600846066805F1140125
:104940000098FFF78EFB022412E006F0030060B926
:10495000C4F1010305F1140202EBC301C4F1010229
:104960005DF82200FFF77DFB00E003E0B608641C61
:10497000012CEAD900BF687A40F001006872404615
:10498000FBF724FC0020BDE8F8830000880000202D
:104990009000002070B50446607A00F0010010B964
:1049A0004FF0FF3070BDFBF70DFC05462046FEF7CB
:1049B000D6FD607A20F0010060722846FBF706FC05
:1049C0000020EFE72DE9FF4F89B081464C460A9859
:1049D00009EB00064E4504D24FF0FF36A6EB090066
:1049E0000A9077E10B980078252806D0B44202D2CD
:1049F0000B9800782070641C69E1002526E00B9874
:104A0000401C0B900B9800782D2802D145F0100522
:104A10001CE00B9800782B2802D145F0040515E026
:104A20000B980078202802D145F008050EE00B987D
:104A30000078232802D145F0200507E00B98007884
:104A4000302802D145F0010500E000E0D7E700BFC3
:104A50004FF0FF370B98007830380A2804D20BA8A3
:104A600000F06DF907460EE00B9800782A280AD16D
:104A70000B98401C0B900C9880C80C90002F02DA09
:104A80007F4245F010054FF0FF3A0B9800782E2832
:104A90001CD10B98401C0B900B98007830380A28DA
:104AA00004D20BA800F04BF982460AE00B9800787C
:104AB0002A2806D10B98401C0B900C9850F804AB98
:104AC0000C90BAF1000F01DA4FF0000A00200490B8
:104AD0000B980078682803D00B9800786C2805D1D3
:104AE0000B98007804900B98401C0B900A200590BE
:104AF0000B9800786F2873D00CDC632813D004DC8B
:104B000025286ED058286DD195E064286BD069288F
:104B1000F9D197E0702873D0732825D075286ED00E
:104B20007828F0D18AE005F0100040B904E0B442E2
:104B300001D220202070641C781E071EF7DC0C9820
:104B400010F8041B0C90C8B20790B44201D2079829
:104B50002070641C04E0B44201D220202070641C48
:104B6000781E071EF7DCB2E00C98006806900C98DF
:104B7000001D0C90069808B960A006904FF0000840
:104B800001E008F10108B84504D0069810F80800C3
:104B90000028F6D1BAF1000F02DDD04500DDD04685
:104BA00005F0100048B904E0B44201D22020207082
:104BB000641C38467F1E4045F6DC002008900BE060
:104BC000B44202D2069800782070641C0698401CFB
:104BD00006900898401C089008984045F0DB09E0D2
:104BE00026E01FE032E02CE00AE0B44201D22020AF
:104BF0002070641C38467F1E4045F6DC67E024E0E8
:104C0000781C10B9082745F00105CDE9007A029516
:104C10000C9804C8102331460C902046FEF7ECFE99
:104C2000044654E0B44201D225202070641C4EE0BA
:104C3000082005901DE045F0400500BF10200590BC
:104C400017E000BF45F0020500BF12E0B44201D2F8
:104C500025202070641C0B98007830B1B44202D239
:104C60000B9800782070641C02E00B98401E0B909B
:104C70002DE000BF04986C2807D10C9850F804BBB5
:104C80000C9005F00200B8B116E0049868280BD12A
:104C90000C9830F8041B1FFA81FB0C9005F0020001
:104CA00050B10FFA8BFB07E00C9850F804BB0C9046
:104CB00005F0020000B100BFCDE9007A02955A4626
:104CC00031462046059BFEF797FE044600BF0B9831
:104CD000401C0B900B98007800287FF483AE0A9854
:104CE00038B1B44202D20020207002E0002006F861
:104CF000010CA4EB09000DB0BDE8F08F284E554C17
:104D00004C290000002070470020704700207047A9
:104D10000020704710B5FBF755FAFEF7E7FFFFF7E5
:104D2000DDFAFFF795FBFFF755FBFEF771FFFFF785
:104D30009DFBFFF7CFFBFFF773FB002010BD014683
:104D4000002009E00B685A1C0A601A7800EB800307
:104D500002EB4302A2F130000A681278303A0A2AC4
:104D6000F0D370470FB42DE9FC410646012E01DA5D
:104D7000012100E0002108460E21FBF775FB06EB40
:104D8000460000EBC600154901EB80042546099852
:104D900028600A9868600B98A8609DF83000287316
:104DA000A8680068C06A20822168D1E90401CDE9C1
:104DB00000012768D7F80CC0634607CFE047616859
:104DC000D1E90401CDE900016768D7F80CC063465A
:104DD00007CFE047BDE8FC015DF814FB60780020D8
:104DE000F0B58BB005460E46012D01DA012100E039
:104DF000002108463221FBF737FB05EB450000EBAD
:104E0000C500104901EB80042168D1E90401CDE916
:104E100000012768D7E902C3624603CFE047242296
:104E2000094902A8FBF799FAA0680290207B8DF847
:104E30000C00208AADF80E00314602A8FEF7A8FE4D
:104E40000BB0F0BD60780020D04E000808E00548A7
:104E500001880020FFF7C4FF4FF47A70FFF772FB60
:104E6000F5E700002800002010B50B480B4908604A
:104E70004FF4E1304860002108488160C160016161
:104E80000C21416100218161C161FDF75BF908B12D
:104E900000BFFEE7002010BD0044004070880020E5
:104EA00000000000000000000102030406070809DA
:104EB0000000000001020304400300002000000085
:104EC0002000000020000000006800000004000036
:104ED00000000000000000000D00000000000000C5
:104EE00000000000000000000000000000000000C2
:104EF000000000000000000000000000B4050020D9
:104F00000000000000000100020001000300010099
:104F10000200010004000100020001000300010082
:104F20000200010005000100020001000300010071
:104F30000200010004000100020001000300010062
:104F40000200010006000100020001000300010050
:104F50000200010004000100020001000300010042
:104F60000200010005000100020001000300010031
:104F70000200010004000100020001000300010022
:104F8000020001000700010002000100030001000F
:104F90000200010004000100020001000300010002
:104FA00002000100050001000200010003000100F1
:104FB00002000100040001000200010003000100E2
:104FC00002000100060001000200010003000100D0
:104FD00002000100040001000200010003000100C2
:104FE00002000100050001000200010003000100B1
:104FF00002000100040001000200010003000100A2
:1050000002000100303132333435363738396162CD
:1050100063646566003031323334353637383941B0
:105020004243444546000000114D0008094D000868
:10503000694E0008054D00080D4D00085C50000841
:1050400000000020C004000004040008A450000870
:10505000C0040020F887000060340008115324F4D5
:1050600013913814087D391408A0092320C0142096
:10507000A07114202078822063E8033210B2012945
:105080000C1A44302904327832021A540C290429AB
:105090003D320A1A640C290402FF2C01FF01FF01B2
:0450A000FF015700B5
:040000050800018965
:00000001FF
